{
  "address": "0x6115b7F05cCeF2D883AB64c88ba7e4BD1b877215",
  "abi": [
    {
      "inputs": [],
      "stateMutability": "nonpayable",
      "type": "constructor"
    },
    {
      "anonymous": false,
      "inputs": [
        {
          "indexed": false,
          "internalType": "contract IERC20Upgradeable",
          "name": "token",
          "type": "address"
        },
        {
          "indexed": false,
          "internalType": "contract MerkleMinter",
          "name": "minter",
          "type": "address"
        },
        {
          "indexed": false,
          "internalType": "contract MerkleDistributor",
          "name": "distributor",
          "type": "address"
        }
      ],
      "name": "TokenCreated",
      "type": "event"
    },
    {
      "inputs": [],
      "name": "distributorBase",
      "outputs": [
        {
          "internalType": "contract MerkleDistributor",
          "name": "",
          "type": "address"
        }
      ],
      "stateMutability": "view",
      "type": "function"
    },
    {
      "inputs": [],
      "name": "governanceERC20Base",
      "outputs": [
        {
          "internalType": "address",
          "name": "",
          "type": "address"
        }
      ],
      "stateMutability": "view",
      "type": "function"
    },
    {
      "inputs": [],
      "name": "governanceWrappedERC20Base",
      "outputs": [
        {
          "internalType": "address",
          "name": "",
          "type": "address"
        }
      ],
      "stateMutability": "view",
      "type": "function"
    },
    {
      "inputs": [],
      "name": "merkleMinterBase",
      "outputs": [
        {
          "internalType": "address",
          "name": "",
          "type": "address"
        }
      ],
      "stateMutability": "view",
      "type": "function"
    },
    {
      "inputs": [
        {
          "internalType": "contract DAO",
          "name": "_dao",
          "type": "address"
        },
        {
          "components": [
            {
              "internalType": "address",
              "name": "addr",
              "type": "address"
            },
            {
              "internalType": "string",
              "name": "name",
              "type": "string"
            },
            {
              "internalType": "string",
              "name": "symbol",
              "type": "string"
            }
          ],
          "internalType": "struct TokenFactory.TokenConfig",
          "name": "_tokenConfig",
          "type": "tuple"
        },
        {
          "components": [
            {
              "internalType": "address[]",
              "name": "receivers",
              "type": "address[]"
            },
            {
              "internalType": "uint256[]",
              "name": "amounts",
              "type": "uint256[]"
            }
          ],
          "internalType": "struct TokenFactory.MintConfig",
          "name": "_mintConfig",
          "type": "tuple"
        }
      ],
      "name": "newToken",
      "outputs": [
        {
          "internalType": "contract ERC20VotesUpgradeable",
          "name": "",
          "type": "address"
        },
        {
          "internalType": "contract MerkleMinter",
          "name": "",
          "type": "address"
        }
      ],
      "stateMutability": "nonpayable",
      "type": "function"
    }
  ],
  "transactionHash": "0x3d96ceaacc9817fa83033f781dca22a258ab59aa162179c50df0310af66e085c",
  "args": [],
  "numDeployments": 1,
  "solcInputHash": "c4c707da39c5ddc6f134238ceb5472d9",
  "bytecode": "0x60806040523480156200001157600080fd5b506200001c62000022565b6200018c565b604051620000309062000154565b604051809103906000f0801580156200004d573d6000803e3d6000fd5b50600380546001600160a01b0319166001600160a01b03929092169190911790556040516200007c9062000162565b604051809103906000f08015801562000099573d6000803e3d6000fd5b50600080546001600160a01b0319166001600160a01b0392909216919091179055604051620000c89062000170565b604051809103906000f080158015620000e5573d6000803e3d6000fd5b50600180546001600160a01b0319166001600160a01b039290921691909117905560405162000114906200017e565b604051809103906000f08015801562000131573d6000803e3d6000fd5b50600280546001600160a01b0319166001600160a01b0392909216919091179055565b610c178062000f2f83390190565b612bfc8062001b4683390190565b61304c806200474283390190565b610b0c806200778e83390190565b610d93806200019c6000396000f3fe608060405234801561001057600080fd5b50600436106100675760003560e01c8063e89b6b9111610050578063e89b6b91146100cf578063ec8528f9146100e2578063f3c3389c146100f557600080fd5b806307745da61461006c578063599cb1a6146100a4575b600080fd5b61007f61007a366004610a8f565b610108565b604080516001600160a01b039384168152929091166020830152015b60405180910390f35b6000546100b7906001600160a01b031681565b6040516001600160a01b03909116815260200161009b565b6001546100b7906001600160a01b031681565b6003546100b7906001600160a01b031681565b6002546100b7906001600160a01b031681565b600080806101196020860186610b14565b90506001600160a01b038116156102535760408051306024808301919091528251808303909101815260449091019091526020810180517bffffffffffffffffffffffffffffffffffffffffffffffffffffffff167f70a08231000000000000000000000000000000000000000000000000000000001790526101a6906001600160a01b038316906107df565b506001546101bc906001600160a01b0316610828565b90506001600160a01b03811663906571476101da6020880188610b14565b6101e76020890189610b31565b6101f460408b018b610b31565b6040518663ffffffff1660e01b8152600401610214959493929190610baa565b600060405180830381600087803b15801561022e57600080fd5b505af1158015610242573d6000803e3d6000fd5b5050505080600092509250506107d7565b600054610268906001600160a01b0316610828565b90506001600160a01b0381166390657147876102876020890189610b31565b61029460408b018b610b31565b6040518663ffffffff1660e01b81526004016102b4959493929190610baa565b600060405180830381600087803b1580156102ce57600080fd5b505af11580156102e2573d6000803e3d6000fd5b5050600254600092506102fe91506001600160a01b0316610828565b6003546040517fc0c53b8b0000000000000000000000000000000000000000000000000000000081526001600160a01b038a811660048301528581166024830152918216604482015291925082169063c0c53b8b90606401600060405180830381600087803b15801561037057600080fd5b505af1158015610384573d6000803e3d6000fd5b5050600354604080516001600160a01b038781168252868116602083015290921682820152517fb5a149b73151b44553ff737ca050c61de65038e2ae67ec044215d3261cc6fa009350908190036060019150a16000826001600160a01b031663512b336d6040518163ffffffff1660e01b8152600401602060405180830381865afa158015610417573d6000803e3d6000fd5b505050506040513d601f19601f8201168201806040525081019061043b9190610bec565b90506000826001600160a01b03166382fad6b16040518163ffffffff1660e01b8152600401602060405180830381865afa15801561047d573d6000803e3d6000fd5b505050506040513d601f19601f820116820180604052508101906104a19190610bec565b6040516335a2eb4b60e21b81526001600160a01b03868116600483015230602483015260448201859052919250908a169063d68bad2c90606401600060405180830381600087803b1580156104f557600080fd5b505af1158015610509573d6000803e3d6000fd5b5050505060005b61051a8880610c05565b9050811015610610576001600160a01b0385166340c10f1961053c8a80610c05565b8481811061054c5761054c610c4f565b90506020020160208101906105619190610b14565b61056e60208c018c610c05565b8581811061057e5761057e610c4f565b6040517fffffffff0000000000000000000000000000000000000000000000000000000060e087901b1681526001600160a01b0390941660048501526020029190910135602483015250604401600060405180830381600087803b1580156105e557600080fd5b505af11580156105f9573d6000803e3d6000fd5b50505050808061060890610c7e565b915050610510565b506040517fd96054c40000000000000000000000000000000000000000000000000000000081526001600160a01b038581166004830152306024830152604482018490528a169063d96054c490606401600060405180830381600087803b15801561067a57600080fd5b505af115801561068e573d6000803e3d6000fd5b50506040516335a2eb4b60e21b81526001600160a01b0387811660048301528c166024820181905260448201869052925063d68bad2c9150606401600060405180830381600087803b1580156106e357600080fd5b505af11580156106f7573d6000803e3d6000fd5b50506040516335a2eb4b60e21b81526001600160a01b0387811660048301528681166024830152604482018690528c16925063d68bad2c9150606401600060405180830381600087803b15801561074d57600080fd5b505af1158015610761573d6000803e3d6000fd5b50506040516335a2eb4b60e21b81526001600160a01b0386811660048301528c166024820181905260448201859052925063d68bad2c9150606401600060405180830381600087803b1580156107b657600080fd5b505af11580156107ca573d6000803e3d6000fd5b5095975093955050505050505b935093915050565b606061082183836040518060400160405280601e81526020017f416464726573733a206c6f772d6c6576656c2063616c6c206661696c656400008152506108e8565b9392505050565b60006040517f3d602d80600a3d3981f3363d3d373d3d3d363d7300000000000000000000000081528260601b60148201527f5af43d82803e903d91602b57fd5bf3000000000000000000000000000000000060288201526037816000f09150506001600160a01b0381166108e35760405162461bcd60e51b815260206004820152601660248201527f455243313136373a20637265617465206661696c65640000000000000000000060448201526064015b60405180910390fd5b919050565b60606108f784846000856108ff565b949350505050565b6060824710156109775760405162461bcd60e51b815260206004820152602660248201527f416464726573733a20696e73756666696369656e742062616c616e636520666f60448201527f722063616c6c000000000000000000000000000000000000000000000000000060648201526084016108da565b843b6109c55760405162461bcd60e51b815260206004820152601d60248201527f416464726573733a2063616c6c20746f206e6f6e2d636f6e747261637400000060448201526064016108da565b600080866001600160a01b031685876040516109e19190610d0e565b60006040518083038185875af1925050503d8060008114610a1e576040519150601f19603f3d011682016040523d82523d6000602084013e610a23565b606091505b5091509150610a33828286610a3e565b979650505050505050565b60608315610a4d575081610821565b825115610a5d5782518084602001fd5b8160405162461bcd60e51b81526004016108da9190610d2a565b6001600160a01b0381168114610a8c57600080fd5b50565b600080600060608486031215610aa457600080fd5b8335610aaf81610a77565b9250602084013567ffffffffffffffff80821115610acc57600080fd5b9085019060608288031215610ae057600080fd5b90925060408501359080821115610af657600080fd5b50840160408187031215610b0957600080fd5b809150509250925092565b600060208284031215610b2657600080fd5b813561082181610a77565b6000808335601e19843603018112610b4857600080fd5b83018035915067ffffffffffffffff821115610b6357600080fd5b602001915036819003821315610b7857600080fd5b9250929050565b818352818160208501375060006020828401015260006020601f19601f840116840101905092915050565b6001600160a01b0386168152606060208201526000610bcd606083018688610b7f565b8281036040840152610be0818587610b7f565b98975050505050505050565b600060208284031215610bfe57600080fd5b5051919050565b6000808335601e19843603018112610c1c57600080fd5b83018035915067ffffffffffffffff821115610c3757600080fd5b6020019150600581901b3603821315610b7857600080fd5b7f4e487b7100000000000000000000000000000000000000000000000000000000600052603260045260246000fd5b60007fffffffffffffffffffffffffffffffffffffffffffffffffffffffffffffffff821415610cd7577f4e487b7100000000000000000000000000000000000000000000000000000000600052601160045260246000fd5b5060010190565b60005b83811015610cf9578181015183820152602001610ce1565b83811115610d08576000848401525b50505050565b60008251610d20818460208701610cde565b9190910192915050565b6020815260008251806020840152610d49816040850160208701610cde565b601f01601f1916919091016040019291505056fea26469706673582212202f05aaf69b68d5e09035c9cb8eed0274da747a051573892dac3726e6a77424c064736f6c634300080a0033608060405234801561001057600080fd5b50610bf7806100206000396000f3fe608060405234801561001057600080fd5b50600436106100725760003560e01c80639e34070f116100505780639e34070f146100bb578063be13f47c146100de578063fc0c546a146100f157600080fd5b80632e7ba6ef146100775780632eb4a7ab1461008c57806358beca34146100a8575b600080fd5b61008a6100853660046108ad565b61013c565b005b61009560015481565b6040519081526020015b60405180910390f35b6100956100b636600461095c565b6102ad565b6100ce6100c9366004610a40565b6102e9565b604051901515815260200161009f565b61008a6100ec366004610a59565b61032a565b6000546101179062010000900473ffffffffffffffffffffffffffffffffffffffff1681565b60405173ffffffffffffffffffffffffffffffffffffffff909116815260200161009f565b610145856102e9565b156101975760405162461bcd60e51b815260206004820152601560248201527f646973743a20616c726561647920636c61696d6564000000000000000000000060448201526064015b60405180910390fd5b6101d685858585858080602002602001604051908101604052809392919081815260200183836020028082843760009201919091525061047292505050565b6102225760405162461bcd60e51b815260206004820152601260248201527f646973743a2070726f6f66206661696c65640000000000000000000000000000604482015260640161018e565b61022b856104ef565b6000546102559062010000900473ffffffffffffffffffffffffffffffffffffffff16858561052d565b8373ffffffffffffffffffffffffffffffffffffffff16857f4ec90e965519d92681267467f775ada5bd214aa92c0dc93d90a5e880ce9ed0268560405161029e91815260200190565b60405180910390a35050505050565b60006102b8856102e9565b156102c5575060006102e1565b6102d185858585610472565b6102dc5760006102de565b825b90505b949350505050565b6000806102f861010084610a9b565b9050600061030861010085610aaf565b60009283526002602052604090922054600190921b9182169091149392505050565b600054610100900460ff1680610343575060005460ff16155b6103b55760405162461bcd60e51b815260206004820152602e60248201527f496e697469616c697a61626c653a20636f6e747261637420697320616c72656160448201527f647920696e697469616c697a6564000000000000000000000000000000000000606482015260840161018e565b600054610100900460ff161580156103f457600080547fffffffffffffffffffffffffffffffffffffffffffffffffffffffffffff0000166101011790555b600080547fffffffffffffffffffff0000000000000000000000000000000000000000ffff166201000073ffffffffffffffffffffffffffffffffffffffff8616021790556001829055801561046d57600080547fffffffffffffffffffffffffffffffffffffffffffffffffffffffffffff00ff1690555b505050565b6000808585856040516020016104c09392919092835260609190911b7fffffffffffffffffffffffffffffffffffffffff000000000000000000000000166020830152603482015260540190565b6040516020818303038152906040528051906020012090506104e583600154836105ba565b9695505050505050565b60006104fd61010083610a9b565b9050600061050d61010084610aaf565b6000928352600260205260409092208054600190931b9092179091555050565b6040805173ffffffffffffffffffffffffffffffffffffffff8416602482015260448082018490528251808303909101815260649091019091526020810180517bffffffffffffffffffffffffffffffffffffffffffffffffffffffff167fa9059cbb0000000000000000000000000000000000000000000000000000000017905261046d9084906105d2565b6000826105c785846106c4565b1490505b9392505050565b6000610634826040518060400160405280602081526020017f5361666545524332303a206c6f772d6c6576656c2063616c6c206661696c65648152508573ffffffffffffffffffffffffffffffffffffffff166107709092919063ffffffff16565b80519091501561046d57808060200190518101906106529190610ac3565b61046d5760405162461bcd60e51b815260206004820152602a60248201527f5361666545524332303a204552433230206f7065726174696f6e20646964206e60448201527f6f74207375636365656400000000000000000000000000000000000000000000606482015260840161018e565b600081815b84518110156107685760008582815181106106e6576106e6610ae5565b60200260200101519050808311610728576040805160208101859052908101829052606001604051602081830303815290604052805190602001209250610755565b60408051602081018390529081018490526060016040516020818303038152906040528051906020012092505b508061076081610afb565b9150506106c9565b509392505050565b60606102e1848460008585843b6107c95760405162461bcd60e51b815260206004820152601d60248201527f416464726573733a2063616c6c20746f206e6f6e2d636f6e7472616374000000604482015260640161018e565b6000808673ffffffffffffffffffffffffffffffffffffffff1685876040516107f29190610b72565b60006040518083038185875af1925050503d806000811461082f576040519150601f19603f3d011682016040523d82523d6000602084013e610834565b606091505b509150915061084482828661084f565b979650505050505050565b6060831561085e5750816105cb565b82511561086e5782518084602001fd5b8160405162461bcd60e51b815260040161018e9190610b8e565b73ffffffffffffffffffffffffffffffffffffffff811681146108aa57600080fd5b50565b6000806000806000608086880312156108c557600080fd5b8535945060208601356108d781610888565b935060408601359250606086013567ffffffffffffffff808211156108fb57600080fd5b818801915088601f83011261090f57600080fd5b81358181111561091e57600080fd5b8960208260051b850101111561093357600080fd5b9699959850939650602001949392505050565b634e487b7160e01b600052604160045260246000fd5b6000806000806080858703121561097257600080fd5b8435935060208086013561098581610888565b935060408601359250606086013567ffffffffffffffff808211156109a957600080fd5b818801915088601f8301126109bd57600080fd5b8135818111156109cf576109cf610946565b8060051b604051601f19603f830116810181811085821117156109f4576109f4610946565b60405291825284820192508381018501918b831115610a1257600080fd5b938501935b82851015610a3057843584529385019392850192610a17565b989b979a50959850505050505050565b600060208284031215610a5257600080fd5b5035919050565b60008060408385031215610a6c57600080fd5b8235610a7781610888565b946020939093013593505050565b634e487b7160e01b600052601260045260246000fd5b600082610aaa57610aaa610a85565b500490565b600082610abe57610abe610a85565b500690565b600060208284031215610ad557600080fd5b815180151581146105cb57600080fd5b634e487b7160e01b600052603260045260246000fd5b60007fffffffffffffffffffffffffffffffffffffffffffffffffffffffffffffffff821415610b3b57634e487b7160e01b600052601160045260246000fd5b5060010190565b60005b83811015610b5d578181015183820152602001610b45565b83811115610b6c576000848401525b50505050565b60008251610b84818460208701610b42565b9190910192915050565b6020815260008251806020840152610bad816040850160208701610b42565b601f01601f1916919091016040019291505056fea26469706673582212205cf59908f98d4c445db1c4bb7aa1294c6330cd5d1f39bf7821b03071887d594564736f6c634300080a0033608060405234801561001057600080fd5b50612bdc806100206000396000f3fe608060405234801561001057600080fd5b50600436106101da5760003560e01c80636fcfff45116101045780639ab24eb0116100a2578063c4d66de811610071578063c4d66de81461043f578063d505accf14610452578063dd62ed3e14610465578063f1127ed81461049e57600080fd5b80639ab24eb0146103f3578063a457c2d714610406578063a9059cbb14610419578063c3cda5201461042c57600080fd5b80637ecebe00116100de5780637ecebe00146103b25780638e539e8c146103c557806390657147146103d857806395d89b41146103eb57600080fd5b80636fcfff451461034f57806370a08231146103775780637da0a877146103a057600080fd5b8063395093511161017c578063512b336d1161014b578063512b336d146102ae578063572b6c05146102d5578063587cde1e146102f85780635c19a95c1461033c57600080fd5b8063395093511461026b5780633a46b1a81461027e57806340c10f1914610291578063486ff0cd146102a657600080fd5b806318160ddd116101b857806318160ddd1461022f57806323b872dd14610241578063313ce567146102545780633644e5151461026357600080fd5b806301ffc9a7146101df57806306fdde0314610207578063095ea7b31461021c575b600080fd5b6101f26101ed3660046126ae565b6104db565b60405190151581526020015b60405180910390f35b61020f610562565b6040516101fe91906126f0565b6101f261022a36600461275a565b6105f4565b6037545b6040519081526020016101fe565b6101f261024f366004612786565b610611565b604051601281526020016101fe565b6102336106fc565b6101f261027936600461275a565b61070b565b61023361028c36600461275a565b61075f565b6102a461029f36600461275a565b6107d9565b005b61020f6108dd565b6102337fb3bb6029312d1001076133d40b75b7eca92ba54e4963b3ce24e1486a3d5a038b81565b6101f26102e33660046127c7565b610100546001600160a01b0391821691161490565b6103246103063660046127c7565b6001600160a01b03908116600090815260ce60205260409020541690565b6040516001600160a01b0390911681526020016101fe565b6102a461034a3660046127c7565b6108fd565b61036261035d3660046127c7565b610911565b60405163ffffffff90911681526020016101fe565b6102336103853660046127c7565b6001600160a01b031660009081526035602052604090205490565b610100546001600160a01b0316610324565b6102336103c03660046127c7565b610933565b6102336103d33660046127e4565b610951565b6102a46103e6366004612846565b6109ad565b61020f610b9b565b6102336104013660046127c7565b610baa565b6101f261041436600461275a565b610c31565b6101f261042736600461275a565b610d00565b6102a461043a3660046128df565b610d14565b6102a461044d3660046127c7565b610e4a565b6102a4610460366004612939565b610f32565b6102336104733660046129a7565b6001600160a01b03918216600090815260366020908152604080832093909416825291909152205490565b6104b16104ac3660046129e0565b611078565b60408051825163ffffffff1681526020928301516001600160e01b031692810192909252016101fe565b7fffffffff00000000000000000000000000000000000000000000000000000000811660009081526020819052604081205460ff168061055c57507f01ffc9a7000000000000000000000000000000000000000000000000000000007fffffffff000000000000000000000000000000000000000000000000000000008316145b92915050565b60606038805461057190612a17565b80601f016020809104026020016040519081016040528092919081815260200182805461059d90612a17565b80156105ea5780601f106105bf576101008083540402835291602001916105ea565b820191906000526020600020905b8154815290600101906020018083116105cd57829003601f168201915b5050505050905090565b60006106086106016110fc565b8484611106565b50600192915050565b600061061e84848461125e565b6001600160a01b03841660009081526036602052604081208161063f6110fc565b6001600160a01b03166001600160a01b03168152602001908152602001600020549050828110156106dd5760405162461bcd60e51b815260206004820152602860248201527f45524332303a207472616e7366657220616d6f756e742065786365656473206160448201527f6c6c6f77616e636500000000000000000000000000000000000000000000000060648201526084015b60405180910390fd5b6106f1856106e96110fc565b858403611106565b506001949350505050565b6000610706611481565b905090565b60006106086107186110fc565b8484603660006107266110fc565b6001600160a01b03908116825260208083019390935260409182016000908120918b168152925290205461075a9190612a62565b611106565b60004382106107b05760405162461bcd60e51b815260206004820152601f60248201527f4552433230566f7465733a20626c6f636b206e6f7420796574206d696e65640060448201526064016106d4565b6001600160a01b038316600090815260cf602052604090206107d290836114fc565b9392505050565b610101547fb3bb6029312d1001076133d40b75b7eca92ba54e4963b3ce24e1486a3d5a038b906001600160a01b031663fdef9106306108166110fc565b8461081f6115b9565b6040518663ffffffff1660e01b815260040161083f959493929190612a7a565b6020604051808303816000875af115801561085e573d6000803e3d6000fd5b505050506040513d601f19601f820116820180604052508101906108829190612ace565b6108ce5760405162461bcd60e51b815260206004820152600f60248201527f636f6d706f6e656e743a2061757468000000000000000000000000000000000060448201526064016106d4565b6108d883836115cc565b505050565b6060604051806060016040528060278152602001612b8060279139905090565b61090e6109086110fc565b826115d6565b50565b6001600160a01b038116600090815260cf602052604081205461055c90611668565b6001600160a01b0381166000908152609b602052604081205461055c565b60004382106109a25760405162461bcd60e51b815260206004820152601f60248201527f4552433230566f7465733a20626c6f636b206e6f7420796574206d696e65640060448201526064016106d4565b61055c60d0836114fc565b600254610100900460ff16806109c6575060025460ff16155b610a295760405162461bcd60e51b815260206004820152602e60248201527f496e697469616c697a61626c653a20636f6e747261637420697320616c72656160448201526d191e481a5b9a5d1a585b1a5e995960921b60648201526084016106d4565b600254610100900460ff16158015610a4b576002805461ffff19166101011790555b610abe85858080601f01602080910402602001604051908101604052809392919081815260200183838082843760009201919091525050604080516020601f890181900481028201810190925287815292508791508690819084018382808284376000920191909152506116e892505050565b610afd85858080601f0160208091040260200160405190810160405280939291908181526020018383808284376000920191909152506117ae92505050565b610b0686610e4a565b610b2f7f36372b07000000000000000000000000000000000000000000000000000000006118b1565b610b587f9d8ff7da000000000000000000000000000000000000000000000000000000006118b1565b610b817fa219a025000000000000000000000000000000000000000000000000000000006118b1565b8015610b93576002805461ff00191690555b505050505050565b60606039805461057190612a17565b6001600160a01b038116600090815260cf60205260408120548015610c1e576001600160a01b038316600090815260cf60205260409020610bec600183612af0565b81548110610bfc57610bfc612b07565b60009182526020909120015464010000000090046001600160e01b0316610c21565b60005b6001600160e01b03169392505050565b60008060366000610c406110fc565b6001600160a01b0390811682526020808301939093526040918201600090812091881681529252902054905082811015610ce25760405162461bcd60e51b815260206004820152602560248201527f45524332303a2064656372656173656420616c6c6f77616e63652062656c6f7760448201527f207a65726f00000000000000000000000000000000000000000000000000000060648201526084016106d4565b610cf6610ced6110fc565b85858403611106565b5060019392505050565b6000610608610d0d6110fc565b848461125e565b83421115610d645760405162461bcd60e51b815260206004820152601d60248201527f4552433230566f7465733a207369676e6174757265206578706972656400000060448201526064016106d4565b604080517fe48329057bfd03d55e49b547132e39cffd9c1820ad7b9d4c5307691425d15adf60208201526001600160a01b038816918101919091526060810186905260808101859052600090610dde90610dd69060a00160405160208183030381529060405280519060200120611940565b8585856119a9565b9050610de9816119d1565b8614610e375760405162461bcd60e51b815260206004820152601960248201527f4552433230566f7465733a20696e76616c6964206e6f6e63650000000000000060448201526064016106d4565b610e4181886115d6565b50505050505050565b600254610100900460ff1680610e63575060025460ff16155b610ec65760405162461bcd60e51b815260206004820152602e60248201527f496e697469616c697a61626c653a20636f6e747261637420697320616c72656160448201526d191e481a5b9a5d1a585b1a5e995960921b60648201526084016106d4565b600254610100900460ff16158015610ee8576002805461ffff19166101011790555b61010180547fffffffffffffffffffffffff0000000000000000000000000000000000000000166001600160a01b0384161790558015610f2e576002805461ff00191690555b5050565b83421115610f825760405162461bcd60e51b815260206004820152601d60248201527f45524332305065726d69743a206578706972656420646561646c696e6500000060448201526064016106d4565b6000609c54888888610f938c6119d1565b6040805160208101969096526001600160a01b0394851690860152929091166060840152608083015260a082015260c0810186905260e0016040516020818303038152906040528051906020012090506000610fee82611940565b90506000610ffe828787876119a9565b9050896001600160a01b0316816001600160a01b0316146110615760405162461bcd60e51b815260206004820152601e60248201527f45524332305065726d69743a20696e76616c6964207369676e6174757265000060448201526064016106d4565b61106c8a8a8a611106565b50505050505050505050565b60408051808201909152600080825260208201526001600160a01b038316600090815260cf60205260409020805463ffffffff84169081106110bc576110bc612b07565b60009182526020918290206040805180820190915291015463ffffffff8116825264010000000090046001600160e01b0316918101919091529392505050565b60006107066119f9565b6001600160a01b0383166111815760405162461bcd60e51b8152602060048201526024808201527f45524332303a20617070726f76652066726f6d20746865207a65726f2061646460448201527f726573730000000000000000000000000000000000000000000000000000000060648201526084016106d4565b6001600160a01b0382166111fd5760405162461bcd60e51b815260206004820152602260248201527f45524332303a20617070726f766520746f20746865207a65726f20616464726560448201527f737300000000000000000000000000000000000000000000000000000000000060648201526084016106d4565b6001600160a01b0383811660008181526036602090815260408083209487168084529482529182902085905590518481527f8c5be1e5ebec7d5bd14f71427d1e84f3dd0314c0f7b2291e5b200ac8c7c3b925910160405180910390a3505050565b6001600160a01b0383166112da5760405162461bcd60e51b815260206004820152602560248201527f45524332303a207472616e736665722066726f6d20746865207a65726f20616460448201527f647265737300000000000000000000000000000000000000000000000000000060648201526084016106d4565b6001600160a01b0382166113565760405162461bcd60e51b815260206004820152602360248201527f45524332303a207472616e7366657220746f20746865207a65726f206164647260448201527f657373000000000000000000000000000000000000000000000000000000000060648201526084016106d4565b6001600160a01b038316600090815260356020526040902054818110156113e55760405162461bcd60e51b815260206004820152602660248201527f45524332303a207472616e7366657220616d6f756e742065786365656473206260448201527f616c616e6365000000000000000000000000000000000000000000000000000060648201526084016106d4565b6001600160a01b0380851660009081526035602052604080822085850390559185168152908120805484929061141c908490612a62565b92505081905550826001600160a01b0316846001600160a01b03167fddf252ad1be2c89b69c2b068fc378daa952ba7f163c4a11628f55a4df523b3ef8460405161146891815260200190565b60405180910390a361147b848484611a4c565b50505050565b60006107067f8b73c3c69bb8fe3d512ecc4cf759cc79239f7b179b0ffacaa9a75d522b39400f6114b060675490565b6068546040805160208101859052908101839052606081018290524660808201523060a082015260009060c0016040516020818303038152906040528051906020012090509392505050565b8154600090815b818110156115605760006115178284611aa9565b90508486828154811061152c5761152c612b07565b60009182526020909120015463ffffffff16111561154c5780925061155a565b611557816001612a62565b91505b50611503565b81156115a45784611572600184612af0565b8154811061158257611582612b07565b60009182526020909120015464010000000090046001600160e01b03166115a7565b60005b6001600160e01b031695945050505050565b3660006115c4611ac4565b915091509091565b610f2e8282611b0d565b6001600160a01b03828116600081815260ce6020818152604080842080546035845282862054949093528787167fffffffffffffffffffffffff00000000000000000000000000000000000000008416811790915590519190951694919391928592917f3134e8a2e6d97e929a7e54011ea5485d7d196dd5f0ba4d4ef95803e8e3fc257f9190a461147b828483611ba4565b600063ffffffff8211156116e45760405162461bcd60e51b815260206004820152602660248201527f53616665436173743a2076616c756520646f65736e27742066697420696e203360448201527f322062697473000000000000000000000000000000000000000000000000000060648201526084016106d4565b5090565b600254610100900460ff1680611701575060025460ff16155b6117645760405162461bcd60e51b815260206004820152602e60248201527f496e697469616c697a61626c653a20636f6e747261637420697320616c72656160448201526d191e481a5b9a5d1a585b1a5e995960921b60648201526084016106d4565b600254610100900460ff16158015611786576002805461ffff19166101011790555b61178e611ce1565b6117988383611d93565b80156108d8576002805461ff0019169055505050565b600254610100900460ff16806117c7575060025460ff16155b61182a5760405162461bcd60e51b815260206004820152602e60248201527f496e697469616c697a61626c653a20636f6e747261637420697320616c72656160448201526d191e481a5b9a5d1a585b1a5e995960921b60648201526084016106d4565b600254610100900460ff1615801561184c576002805461ffff19166101011790555b611854611ce1565b611893826040518060400160405280600181526020017f3100000000000000000000000000000000000000000000000000000000000000815250611e6f565b61189c82611f40565b8015610f2e576002805461ff00191690555050565b7fffffffff0000000000000000000000000000000000000000000000000000000081166000818152602081815260409182902080547fffffffffffffffffffffffffffffffffffffffffffffffffffffffffffffff0016600117905590519182527fbf5e1f87f5ab65b58074cd29244d7c487a948983cda4b932e0f966b62bd34aca910160405180910390a150565b600061055c61194d611481565b836040517f19010000000000000000000000000000000000000000000000000000000000006020820152602281018390526042810182905260009060620160405160208183030381529060405280519060200120905092915050565b60008060006119ba87878787612017565b915091506119c781612104565b5095945050505050565b6001600160a01b0381166000908152609b602052604090208054600181018255905b50919050565b600060143610801590611a175750610100546001600160a01b031633145b15611a4757507fffffffffffffffffffffffffffffffffffffffffffffffffffffffffffffffec36013560601c90565b503390565b611a578383836122f5565b6001600160a01b038316158015611a7657506001600160a01b03821615155b8015611a9a57506001600160a01b03828116600090815260ce602052604090205416155b156108d8576108d882836115d6565b6000611ab86002848418612b1d565b6107d290848416612a62565b36600060148210801590611ae35750610100546001600160a01b031633145b15611b045760008036611af7601482612af0565b926115c493929190612b3f565b50600091369150565b611b178282612327565b6037546001600160e01b031015611b965760405162461bcd60e51b815260206004820152603060248201527f4552433230566f7465733a20746f74616c20737570706c79207269736b73206f60448201527f766572666c6f77696e6720766f7465730000000000000000000000000000000060648201526084016106d4565b61147b60d061240e8361241a565b816001600160a01b0316836001600160a01b031614158015611bc65750600081115b156108d8576001600160a01b03831615611c54576001600160a01b038316600090815260cf602052604081208190611c01906125938561241a565b91509150846001600160a01b03167fdec2bacdd2f05b59de34da9b523dff8be42e5e38e818c82fdb0bae774387a7248383604051611c49929190918252602082015260400190565b60405180910390a250505b6001600160a01b038216156108d8576001600160a01b038216600090815260cf602052604081208190611c8a9061240e8561241a565b91509150836001600160a01b03167fdec2bacdd2f05b59de34da9b523dff8be42e5e38e818c82fdb0bae774387a7248383604051611cd2929190918252602082015260400190565b60405180910390a25050505050565b600254610100900460ff1680611cfa575060025460ff16155b611d5d5760405162461bcd60e51b815260206004820152602e60248201527f496e697469616c697a61626c653a20636f6e747261637420697320616c72656160448201526d191e481a5b9a5d1a585b1a5e995960921b60648201526084016106d4565b600254610100900460ff16158015611d7f576002805461ffff19166101011790555b801561090e576002805461ff001916905550565b600254610100900460ff1680611dac575060025460ff16155b611e0f5760405162461bcd60e51b815260206004820152602e60248201527f496e697469616c697a61626c653a20636f6e747261637420697320616c72656160448201526d191e481a5b9a5d1a585b1a5e995960921b60648201526084016106d4565b600254610100900460ff16158015611e31576002805461ffff19166101011790555b8251611e4490603890602086019061261e565b508151611e5890603990602085019061261e565b5080156108d8576002805461ff0019169055505050565b600254610100900460ff1680611e88575060025460ff16155b611eeb5760405162461bcd60e51b815260206004820152602e60248201527f496e697469616c697a61626c653a20636f6e747261637420697320616c72656160448201526d191e481a5b9a5d1a585b1a5e995960921b60648201526084016106d4565b600254610100900460ff16158015611f0d576002805461ffff19166101011790555b825160208085019190912083519184019190912060679190915560685580156108d8576002805461ff0019169055505050565b600254610100900460ff1680611f59575060025460ff16155b611fbc5760405162461bcd60e51b815260206004820152602e60248201527f496e697469616c697a61626c653a20636f6e747261637420697320616c72656160448201526d191e481a5b9a5d1a585b1a5e995960921b60648201526084016106d4565b600254610100900460ff16158015611fde576002805461ffff19166101011790555b7f6e71edae12b1b97f4d1f60370fef10105fa2faae0126114a169c64845d6126c9609c558015610f2e576002805461ff00191690555050565b6000807f7fffffffffffffffffffffffffffffff5d576e7357a4501ddfe92f46681b20a083111561204e57506000905060036120fb565b8460ff16601b1415801561206657508460ff16601c14155b1561207757506000905060046120fb565b6040805160008082526020820180845289905260ff881692820192909252606081018690526080810185905260019060a0016020604051602081039080840390855afa1580156120cb573d6000803e3d6000fd5b5050604051601f1901519150506001600160a01b0381166120f4576000600192509250506120fb565b9150600090505b94509492505050565b600081600481111561211857612118612b69565b14156121215750565b600181600481111561213557612135612b69565b14156121835760405162461bcd60e51b815260206004820152601860248201527f45434453413a20696e76616c6964207369676e6174757265000000000000000060448201526064016106d4565b600281600481111561219757612197612b69565b14156121e55760405162461bcd60e51b815260206004820152601f60248201527f45434453413a20696e76616c6964207369676e6174757265206c656e6774680060448201526064016106d4565b60038160048111156121f9576121f9612b69565b141561226d5760405162461bcd60e51b815260206004820152602260248201527f45434453413a20696e76616c6964207369676e6174757265202773272076616c60448201527f756500000000000000000000000000000000000000000000000000000000000060648201526084016106d4565b600481600481111561228157612281612b69565b141561090e5760405162461bcd60e51b815260206004820152602260248201527f45434453413a20696e76616c6964207369676e6174757265202776272076616c60448201527f756500000000000000000000000000000000000000000000000000000000000060648201526084016106d4565b6001600160a01b03838116600090815260ce60205260408082205485841683529120546108d892918216911683611ba4565b6001600160a01b03821661237d5760405162461bcd60e51b815260206004820152601f60248201527f45524332303a206d696e7420746f20746865207a65726f20616464726573730060448201526064016106d4565b806037600082825461238f9190612a62565b90915550506001600160a01b038216600090815260356020526040812080548392906123bc908490612a62565b90915550506040518181526001600160a01b038316906000907fddf252ad1be2c89b69c2b068fc378daa952ba7f163c4a11628f55a4df523b3ef9060200160405180910390a3610f2e60008383611a4c565b60006107d28284612a62565b8254600090819080156124655785612433600183612af0565b8154811061244357612443612b07565b60009182526020909120015464010000000090046001600160e01b0316612468565b60005b6001600160e01b0316925061248183858763ffffffff16565b91506000811180156124bf5750438661249b600184612af0565b815481106124ab576124ab612b07565b60009182526020909120015463ffffffff16145b1561251f576124cd8261259f565b866124d9600184612af0565b815481106124e9576124e9612b07565b9060005260206000200160000160046101000a8154816001600160e01b0302191690836001600160e01b0316021790555061258a565b85604051806040016040528061253443611668565b63ffffffff1681526020016125488561259f565b6001600160e01b0390811690915282546001810184556000938452602093849020835194909301519091166401000000000263ffffffff909316929092179101555b50935093915050565b60006107d28284612af0565b60006001600160e01b038211156116e45760405162461bcd60e51b815260206004820152602760248201527f53616665436173743a2076616c756520646f65736e27742066697420696e203260448201527f323420626974730000000000000000000000000000000000000000000000000060648201526084016106d4565b82805461262a90612a17565b90600052602060002090601f01602090048101928261264c5760008555612692565b82601f1061266557805160ff1916838001178555612692565b82800160010185558215612692579182015b82811115612692578251825591602001919060010190612677565b506116e49291505b808211156116e4576000815560010161269a565b6000602082840312156126c057600080fd5b81357fffffffff00000000000000000000000000000000000000000000000000000000811681146107d257600080fd5b600060208083528351808285015260005b8181101561271d57858101830151858201604001528201612701565b8181111561272f576000604083870101525b50601f01601f1916929092016040019392505050565b6001600160a01b038116811461090e57600080fd5b6000806040838503121561276d57600080fd5b823561277881612745565b946020939093013593505050565b60008060006060848603121561279b57600080fd5b83356127a681612745565b925060208401356127b681612745565b929592945050506040919091013590565b6000602082840312156127d957600080fd5b81356107d281612745565b6000602082840312156127f657600080fd5b5035919050565b60008083601f84011261280f57600080fd5b50813567ffffffffffffffff81111561282757600080fd5b60208301915083602082850101111561283f57600080fd5b9250929050565b60008060008060006060868803121561285e57600080fd5b853561286981612745565b9450602086013567ffffffffffffffff8082111561288657600080fd5b61289289838a016127fd565b909650945060408801359150808211156128ab57600080fd5b506128b8888289016127fd565b969995985093965092949392505050565b803560ff811681146128da57600080fd5b919050565b60008060008060008060c087890312156128f857600080fd5b863561290381612745565b9550602087013594506040870135935061291f606088016128c9565b92506080870135915060a087013590509295509295509295565b600080600080600080600060e0888a03121561295457600080fd5b873561295f81612745565b9650602088013561296f81612745565b9550604088013594506060880135935061298b608089016128c9565b925060a0880135915060c0880135905092959891949750929550565b600080604083850312156129ba57600080fd5b82356129c581612745565b915060208301356129d581612745565b809150509250929050565b600080604083850312156129f357600080fd5b82356129fe81612745565b9150602083013563ffffffff811681146129d557600080fd5b600181811c90821680612a2b57607f821691505b602082108114156119f357634e487b7160e01b600052602260045260246000fd5b634e487b7160e01b600052601160045260246000fd5b60008219821115612a7557612a75612a4c565b500190565b60006001600160a01b03808816835280871660208401525084604083015260806060830152826080830152828460a0840137600060a0848401015260a0601f19601f85011683010190509695505050505050565b600060208284031215612ae057600080fd5b815180151581146107d257600080fd5b600082821015612b0257612b02612a4c565b500390565b634e487b7160e01b600052603260045260246000fd5b600082612b3a57634e487b7160e01b600052601260045260246000fd5b500490565b60008085851115612b4f57600080fd5b83861115612b5c57600080fd5b5050820193919092039150565b634e487b7160e01b600052602160045260246000fdfe302e302e312b6f70656e67736e2e726563697069656e742e476f7665726e616e63654552433230a26469706673582212205d7bc4a8ae5192be3f1b9fb11ffa3bf8ae46a7f7de6e3ca2d6407c74faa9523964736f6c634300080a0033608060405234801561001057600080fd5b5061302c806100206000396000f3fe608060405234801561001057600080fd5b50600436106101da5760003560e01c80636f307dc31161010457806395d89b41116100a2578063c3cda52011610071578063c3cda5201461042c578063d505accf1461043f578063dd62ed3e14610452578063f1127ed81461048b57600080fd5b806395d89b41146103eb5780639ab24eb0146103f3578063a457c2d714610406578063a9059cbb1461041957600080fd5b80637da0a877116100de5780637da0a877146103a05780637ecebe00146103b25780638e539e8c146103c557806390657147146103d857600080fd5b80636f307dc31461033b5780636fcfff451461034f57806370a082311461037757600080fd5b8063313ce5671161017c578063486ff0cd1161014b578063486ff0cd146102b7578063572b6c05146102bf578063587cde1e146102e25780635c19a95c1461032657600080fd5b8063313ce5671461027a5780633644e5151461028957806339509351146102915780633a46b1a8146102a457600080fd5b806318160ddd116101b857806318160ddd1461022f578063205c28781461024157806323b872dd146102545780632f4f21e21461026757600080fd5b806301ffc9a7146101df57806306fdde0314610207578063095ea7b31461021c575b600080fd5b6101f26101ed366004612b4f565b6104c8565b60405190151581526020015b60405180910390f35b61020f61054f565b6040516101fe9190612bbd565b6101f261022a366004612c05565b6105e1565b6037545b6040519081526020016101fe565b6101f261024f366004612c05565b6105fe565b6101f2610262366004612c31565b610629565b6101f2610275366004612c05565b610716565b604051601281526020016101fe565b610233610743565b6101f261029f366004612c05565b610752565b6102336102b2366004612c05565b6107a6565b61020f610819565b6101f26102cd366004612c72565b610133546001600160a01b0391821691161490565b61030e6102f0366004612c72565b6001600160a01b03908116600090815260ce60205260409020541690565b6040516001600160a01b0390911681526020016101fe565b610339610334366004612c72565b610839565b005b6101005461030e906001600160a01b031681565b61036261035d366004612c72565b61084d565b60405163ffffffff90911681526020016101fe565b610233610385366004612c72565b6001600160a01b031660009081526035602052604090205490565b610133546001600160a01b031661030e565b6102336103c0366004612c72565b61086f565b6102336103d3366004612c8f565b61088d565b6103396103e6366004612cf1565b6108e9565b61020f610ad7565b610233610401366004612c72565b610ae6565b6101f2610414366004612c05565b610b6d565b6101f2610427366004612c05565b610c3c565b61033961043a366004612d8a565b610c50565b61033961044d366004612de4565b610d86565b610233610460366004612e52565b6001600160a01b03918216600090815260366020908152604080832093909416825291909152205490565b61049e610499366004612e8b565b610ecc565b60408051825163ffffffff1681526020928301516001600160e01b031692810192909252016101fe565b7fffffffff00000000000000000000000000000000000000000000000000000000811660009081526001602052604081205460ff168061054957507f01ffc9a7000000000000000000000000000000000000000000000000000000007fffffffff000000000000000000000000000000000000000000000000000000008316145b92915050565b60606038805461055e90612ec2565b80601f016020809104026020016040519081016040528092919081815260200182805461058a90612ec2565b80156105d75780601f106105ac576101008083540402835291602001916105d7565b820191906000526020600020905b8154815290600101906020018083116105ba57829003601f168201915b5050505050905090565b60006105f56105ee610f50565b8484610f5a565b50600192915050565b600061061161060b610f50565b836110b2565b610100546105f5906001600160a01b031684846110c0565b6000610636848484611159565b6001600160a01b038416600090815260366020526040812081610657610f50565b6001600160a01b03166001600160a01b03168152602001908152602001600020549050828110156106f55760405162461bcd60e51b815260206004820152602860248201527f45524332303a207472616e7366657220616d6f756e742065786365656473206160448201527f6c6c6f77616e636500000000000000000000000000000000000000000000000060648201526084015b60405180910390fd5b61070985610701610f50565b858403610f5a565b60019150505b9392505050565b61010054600090610739906001600160a01b0316610732610f50565b308561137c565b6105f583836113cd565b600061074d6113d7565b905090565b60006105f561075f610f50565b84846036600061076d610f50565b6001600160a01b03908116825260208083019390935260409182016000908120918b16815292529020546107a19190612f0d565b610f5a565b60004382106107f75760405162461bcd60e51b815260206004820152601f60248201527f4552433230566f7465733a20626c6f636b206e6f7420796574206d696e65640060448201526064016106ec565b6001600160a01b038316600090815260cf6020526040902061070f9083611452565b60606040518060600160405280602e8152602001612fc9602e9139905090565b61084a610844610f50565b8261150f565b50565b6001600160a01b038116600090815260cf6020526040812054610549906115a1565b6001600160a01b0381166000908152609b6020526040812054610549565b60004382106108de5760405162461bcd60e51b815260206004820152601f60248201527f4552433230566f7465733a20626c6f636b206e6f7420796574206d696e65640060448201526064016106ec565b61054960d083611452565b600054610100900460ff1680610902575060005460ff16155b6109655760405162461bcd60e51b815260206004820152602e60248201527f496e697469616c697a61626c653a20636f6e747261637420697320616c72656160448201526d191e481a5b9a5d1a585b1a5e995960921b60648201526084016106ec565b600054610100900460ff16158015610987576000805461ffff19166101011790555b6109fa85858080601f01602080910402602001604051908101604052809392919081815260200183838082843760009201919091525050604080516020601f8901819004810282018101909252878152925087915086908190840183828082843760009201919091525061162192505050565b610a3985858080601f0160208091040260200160405190810160405280939291908181526020018383808284376000920191909152506116e792505050565b610a42866117ea565b610a6b7f36372b0700000000000000000000000000000000000000000000000000000000611899565b610a947f9d8ff7da00000000000000000000000000000000000000000000000000000000611899565b610abd7fa219a02500000000000000000000000000000000000000000000000000000000611899565b8015610acf576000805461ff00191690555b505050505050565b60606039805461055e90612ec2565b6001600160a01b038116600090815260cf60205260408120548015610b5a576001600160a01b038316600090815260cf60205260409020610b28600183612f25565b81548110610b3857610b38612f3c565b60009182526020909120015464010000000090046001600160e01b0316610b5d565b60005b6001600160e01b03169392505050565b60008060366000610b7c610f50565b6001600160a01b0390811682526020808301939093526040918201600090812091881681529252902054905082811015610c1e5760405162461bcd60e51b815260206004820152602560248201527f45524332303a2064656372656173656420616c6c6f77616e63652062656c6f7760448201527f207a65726f00000000000000000000000000000000000000000000000000000060648201526084016106ec565b610c32610c29610f50565b85858403610f5a565b5060019392505050565b60006105f5610c49610f50565b8484611159565b83421115610ca05760405162461bcd60e51b815260206004820152601d60248201527f4552433230566f7465733a207369676e6174757265206578706972656400000060448201526064016106ec565b604080517fe48329057bfd03d55e49b547132e39cffd9c1820ad7b9d4c5307691425d15adf60208201526001600160a01b038816918101919091526060810186905260808101859052600090610d1a90610d129060a0016040516020818303038152906040528051906020012061192b565b858585611994565b9050610d25816119bc565b8614610d735760405162461bcd60e51b815260206004820152601960248201527f4552433230566f7465733a20696e76616c6964206e6f6e63650000000000000060448201526064016106ec565b610d7d818861150f565b50505050505050565b83421115610dd65760405162461bcd60e51b815260206004820152601d60248201527f45524332305065726d69743a206578706972656420646561646c696e6500000060448201526064016106ec565b6000609c54888888610de78c6119bc565b6040805160208101969096526001600160a01b0394851690860152929091166060840152608083015260a082015260c0810186905260e0016040516020818303038152906040528051906020012090506000610e428261192b565b90506000610e5282878787611994565b9050896001600160a01b0316816001600160a01b031614610eb55760405162461bcd60e51b815260206004820152601e60248201527f45524332305065726d69743a20696e76616c6964207369676e6174757265000060448201526064016106ec565b610ec08a8a8a610f5a565b50505050505050505050565b60408051808201909152600080825260208201526001600160a01b038316600090815260cf60205260409020805463ffffffff8416908110610f1057610f10612f3c565b60009182526020918290206040805180820190915291015463ffffffff8116825264010000000090046001600160e01b0316918101919091529392505050565b600061074d6119e4565b6001600160a01b038316610fd55760405162461bcd60e51b8152602060048201526024808201527f45524332303a20617070726f76652066726f6d20746865207a65726f2061646460448201527f726573730000000000000000000000000000000000000000000000000000000060648201526084016106ec565b6001600160a01b0382166110515760405162461bcd60e51b815260206004820152602260248201527f45524332303a20617070726f766520746f20746865207a65726f20616464726560448201527f737300000000000000000000000000000000000000000000000000000000000060648201526084016106ec565b6001600160a01b0383811660008181526036602090815260408083209487168084529482529182902085905590518481527f8c5be1e5ebec7d5bd14f71427d1e84f3dd0314c0f7b2291e5b200ac8c7c3b925910160405180910390a3505050565b6110bc8282611a37565b5050565b6040516001600160a01b0383166024820152604481018290526111549084907fa9059cbb00000000000000000000000000000000000000000000000000000000906064015b60408051601f198184030181529190526020810180516001600160e01b03167fffffffff0000000000000000000000000000000000000000000000000000000090931692909217909152611a4f565b505050565b6001600160a01b0383166111d55760405162461bcd60e51b815260206004820152602560248201527f45524332303a207472616e736665722066726f6d20746865207a65726f20616460448201527f647265737300000000000000000000000000000000000000000000000000000060648201526084016106ec565b6001600160a01b0382166112515760405162461bcd60e51b815260206004820152602360248201527f45524332303a207472616e7366657220746f20746865207a65726f206164647260448201527f657373000000000000000000000000000000000000000000000000000000000060648201526084016106ec565b6001600160a01b038316600090815260356020526040902054818110156112e05760405162461bcd60e51b815260206004820152602660248201527f45524332303a207472616e7366657220616d6f756e742065786365656473206260448201527f616c616e6365000000000000000000000000000000000000000000000000000060648201526084016106ec565b6001600160a01b03808516600090815260356020526040808220858503905591851681529081208054849290611317908490612f0d565b92505081905550826001600160a01b0316846001600160a01b03167fddf252ad1be2c89b69c2b068fc378daa952ba7f163c4a11628f55a4df523b3ef8460405161136391815260200190565b60405180910390a3611376848484611b34565b50505050565b6040516001600160a01b03808516602483015283166044820152606481018290526113769085907f23b872dd0000000000000000000000000000000000000000000000000000000090608401611105565b6110bc8282611b91565b600061074d7f8b73c3c69bb8fe3d512ecc4cf759cc79239f7b179b0ffacaa9a75d522b39400f61140660675490565b6068546040805160208101859052908101839052606081018290524660808201523060a082015260009060c0016040516020818303038152906040528051906020012090509392505050565b8154600090815b818110156114b657600061146d8284611c28565b90508486828154811061148257611482612f3c565b60009182526020909120015463ffffffff1611156114a2578092506114b0565b6114ad816001612f0d565b91505b50611459565b81156114fa57846114c8600184612f25565b815481106114d8576114d8612f3c565b60009182526020909120015464010000000090046001600160e01b03166114fd565b60005b6001600160e01b031695945050505050565b6001600160a01b03828116600081815260ce6020818152604080842080546035845282862054949093528787167fffffffffffffffffffffffff00000000000000000000000000000000000000008416811790915590519190951694919391928592917f3134e8a2e6d97e929a7e54011ea5485d7d196dd5f0ba4d4ef95803e8e3fc257f9190a4611376828483611c43565b600063ffffffff82111561161d5760405162461bcd60e51b815260206004820152602660248201527f53616665436173743a2076616c756520646f65736e27742066697420696e203360448201527f322062697473000000000000000000000000000000000000000000000000000060648201526084016106ec565b5090565b600054610100900460ff168061163a575060005460ff16155b61169d5760405162461bcd60e51b815260206004820152602e60248201527f496e697469616c697a61626c653a20636f6e747261637420697320616c72656160448201526d191e481a5b9a5d1a585b1a5e995960921b60648201526084016106ec565b600054610100900460ff161580156116bf576000805461ffff19166101011790555b6116c7611d80565b6116d18383611e32565b8015611154576000805461ff0019169055505050565b600054610100900460ff1680611700575060005460ff16155b6117635760405162461bcd60e51b815260206004820152602e60248201527f496e697469616c697a61626c653a20636f6e747261637420697320616c72656160448201526d191e481a5b9a5d1a585b1a5e995960921b60648201526084016106ec565b600054610100900460ff16158015611785576000805461ffff19166101011790555b61178d611d80565b6117cc826040518060400160405280600181526020017f3100000000000000000000000000000000000000000000000000000000000000815250611f0e565b6117d582611fdf565b80156110bc576000805461ff00191690555050565b600054610100900460ff1680611803575060005460ff16155b6118665760405162461bcd60e51b815260206004820152602e60248201527f496e697469616c697a61626c653a20636f6e747261637420697320616c72656160448201526d191e481a5b9a5d1a585b1a5e995960921b60648201526084016106ec565b600054610100900460ff16158015611888576000805461ffff19166101011790555b611890611d80565b6117d5826120b6565b7fffffffff00000000000000000000000000000000000000000000000000000000811660008181526001602081815260409283902080547fffffffffffffffffffffffffffffffffffffffffffffffffffffffffffffff001690921790915590519182527fbf5e1f87f5ab65b58074cd29244d7c487a948983cda4b932e0f966b62bd34aca910160405180910390a150565b60006105496119386113d7565b836040517f19010000000000000000000000000000000000000000000000000000000000006020820152602281018390526042810182905260009060620160405160208183030381529060405280519060200120905092915050565b60008060006119a58787878761219d565b915091506119b28161228a565b5095945050505050565b6001600160a01b0381166000908152609b602052604090208054600181018255905b50919050565b600060143610801590611a025750610133546001600160a01b031633145b15611a3257507fffffffffffffffffffffffffffffffffffffffffffffffffffffffffffffffec36013560601c90565b503390565b611a41828261247b565b61137660d061260783612613565b6000611aa4826040518060400160405280602081526020017f5361666545524332303a206c6f772d6c6576656c2063616c6c206661696c6564815250856001600160a01b031661278c9092919063ffffffff16565b8051909150156111545780806020019051810190611ac29190612f52565b6111545760405162461bcd60e51b815260206004820152602a60248201527f5361666545524332303a204552433230206f7065726174696f6e20646964206e60448201527f6f7420737563636565640000000000000000000000000000000000000000000060648201526084016106ec565b611b3f8383836127a3565b6001600160a01b038316158015611b5e57506001600160a01b03821615155b8015611b8257506001600160a01b03828116600090815260ce602052604090205416155b1561115457611154828361150f565b611b9b82826127d5565b6037546001600160e01b031015611c1a5760405162461bcd60e51b815260206004820152603060248201527f4552433230566f7465733a20746f74616c20737570706c79207269736b73206f60448201527f766572666c6f77696e6720766f7465730000000000000000000000000000000060648201526084016106ec565b61137660d06128bc83612613565b6000611c376002848418612f74565b61070f90848416612f0d565b816001600160a01b0316836001600160a01b031614158015611c655750600081115b15611154576001600160a01b03831615611cf3576001600160a01b038316600090815260cf602052604081208190611ca09061260785612613565b91509150846001600160a01b03167fdec2bacdd2f05b59de34da9b523dff8be42e5e38e818c82fdb0bae774387a7248383604051611ce8929190918252602082015260400190565b60405180910390a250505b6001600160a01b03821615611154576001600160a01b038216600090815260cf602052604081208190611d29906128bc85612613565b91509150836001600160a01b03167fdec2bacdd2f05b59de34da9b523dff8be42e5e38e818c82fdb0bae774387a7248383604051611d71929190918252602082015260400190565b60405180910390a25050505050565b600054610100900460ff1680611d99575060005460ff16155b611dfc5760405162461bcd60e51b815260206004820152602e60248201527f496e697469616c697a61626c653a20636f6e747261637420697320616c72656160448201526d191e481a5b9a5d1a585b1a5e995960921b60648201526084016106ec565b600054610100900460ff16158015611e1e576000805461ffff19166101011790555b801561084a576000805461ff001916905550565b600054610100900460ff1680611e4b575060005460ff16155b611eae5760405162461bcd60e51b815260206004820152602e60248201527f496e697469616c697a61626c653a20636f6e747261637420697320616c72656160448201526d191e481a5b9a5d1a585b1a5e995960921b60648201526084016106ec565b600054610100900460ff16158015611ed0576000805461ffff19166101011790555b8251611ee3906038906020860190612abf565b508151611ef7906039906020850190612abf565b508015611154576000805461ff0019169055505050565b600054610100900460ff1680611f27575060005460ff16155b611f8a5760405162461bcd60e51b815260206004820152602e60248201527f496e697469616c697a61626c653a20636f6e747261637420697320616c72656160448201526d191e481a5b9a5d1a585b1a5e995960921b60648201526084016106ec565b600054610100900460ff16158015611fac576000805461ffff19166101011790555b82516020808501919091208351918401919091206067919091556068558015611154576000805461ff0019169055505050565b600054610100900460ff1680611ff8575060005460ff16155b61205b5760405162461bcd60e51b815260206004820152602e60248201527f496e697469616c697a61626c653a20636f6e747261637420697320616c72656160448201526d191e481a5b9a5d1a585b1a5e995960921b60648201526084016106ec565b600054610100900460ff1615801561207d576000805461ffff19166101011790555b7f6e71edae12b1b97f4d1f60370fef10105fa2faae0126114a169c64845d6126c9609c5580156110bc576000805461ff00191690555050565b600054610100900460ff16806120cf575060005460ff16155b6121325760405162461bcd60e51b815260206004820152602e60248201527f496e697469616c697a61626c653a20636f6e747261637420697320616c72656160448201526d191e481a5b9a5d1a585b1a5e995960921b60648201526084016106ec565b600054610100900460ff16158015612154576000805461ffff19166101011790555b61010080547fffffffffffffffffffffffff0000000000000000000000000000000000000000166001600160a01b03841617905580156110bc576000805461ff00191690555050565b6000807f7fffffffffffffffffffffffffffffff5d576e7357a4501ddfe92f46681b20a08311156121d45750600090506003612281565b8460ff16601b141580156121ec57508460ff16601c14155b156121fd5750600090506004612281565b6040805160008082526020820180845289905260ff881692820192909252606081018690526080810185905260019060a0016020604051602081039080840390855afa158015612251573d6000803e3d6000fd5b5050604051601f1901519150506001600160a01b03811661227a57600060019250925050612281565b9150600090505b94509492505050565b600081600481111561229e5761229e612f96565b14156122a75750565b60018160048111156122bb576122bb612f96565b14156123095760405162461bcd60e51b815260206004820152601860248201527f45434453413a20696e76616c6964207369676e6174757265000000000000000060448201526064016106ec565b600281600481111561231d5761231d612f96565b141561236b5760405162461bcd60e51b815260206004820152601f60248201527f45434453413a20696e76616c6964207369676e6174757265206c656e6774680060448201526064016106ec565b600381600481111561237f5761237f612f96565b14156123f35760405162461bcd60e51b815260206004820152602260248201527f45434453413a20696e76616c6964207369676e6174757265202773272076616c60448201527f756500000000000000000000000000000000000000000000000000000000000060648201526084016106ec565b600481600481111561240757612407612f96565b141561084a5760405162461bcd60e51b815260206004820152602260248201527f45434453413a20696e76616c6964207369676e6174757265202776272076616c60448201527f756500000000000000000000000000000000000000000000000000000000000060648201526084016106ec565b6001600160a01b0382166124f75760405162461bcd60e51b815260206004820152602160248201527f45524332303a206275726e2066726f6d20746865207a65726f2061646472657360448201527f730000000000000000000000000000000000000000000000000000000000000060648201526084016106ec565b6001600160a01b038216600090815260356020526040902054818110156125865760405162461bcd60e51b815260206004820152602260248201527f45524332303a206275726e20616d6f756e7420657863656564732062616c616e60448201527f636500000000000000000000000000000000000000000000000000000000000060648201526084016106ec565b6001600160a01b03831660009081526035602052604081208383039055603780548492906125b5908490612f25565b90915550506040518281526000906001600160a01b038516907fddf252ad1be2c89b69c2b068fc378daa952ba7f163c4a11628f55a4df523b3ef9060200160405180910390a361115483600084611b34565b600061070f8284612f25565b82546000908190801561265e578561262c600183612f25565b8154811061263c5761263c612f3c565b60009182526020909120015464010000000090046001600160e01b0316612661565b60005b6001600160e01b0316925061267a83858763ffffffff16565b91506000811180156126b857504386612694600184612f25565b815481106126a4576126a4612f3c565b60009182526020909120015463ffffffff16145b15612718576126c6826128c8565b866126d2600184612f25565b815481106126e2576126e2612f3c565b9060005260206000200160000160046101000a8154816001600160e01b0302191690836001600160e01b03160217905550612783565b85604051806040016040528061272d436115a1565b63ffffffff168152602001612741856128c8565b6001600160e01b0390811690915282546001810184556000938452602093849020835194909301519091166401000000000263ffffffff909316929092179101555b50935093915050565b606061279b8484600085612947565b949350505050565b6001600160a01b03838116600090815260ce602052604080822054858416835291205461115492918216911683611c43565b6001600160a01b03821661282b5760405162461bcd60e51b815260206004820152601f60248201527f45524332303a206d696e7420746f20746865207a65726f20616464726573730060448201526064016106ec565b806037600082825461283d9190612f0d565b90915550506001600160a01b0382166000908152603560205260408120805483929061286a908490612f0d565b90915550506040518181526001600160a01b038316906000907fddf252ad1be2c89b69c2b068fc378daa952ba7f163c4a11628f55a4df523b3ef9060200160405180910390a36110bc60008383611b34565b600061070f8284612f0d565b60006001600160e01b0382111561161d5760405162461bcd60e51b815260206004820152602760248201527f53616665436173743a2076616c756520646f65736e27742066697420696e203260448201527f323420626974730000000000000000000000000000000000000000000000000060648201526084016106ec565b6060824710156129bf5760405162461bcd60e51b815260206004820152602660248201527f416464726573733a20696e73756666696369656e742062616c616e636520666f60448201527f722063616c6c000000000000000000000000000000000000000000000000000060648201526084016106ec565b843b612a0d5760405162461bcd60e51b815260206004820152601d60248201527f416464726573733a2063616c6c20746f206e6f6e2d636f6e747261637400000060448201526064016106ec565b600080866001600160a01b03168587604051612a299190612fac565b60006040518083038185875af1925050503d8060008114612a66576040519150601f19603f3d011682016040523d82523d6000602084013e612a6b565b606091505b5091509150612a7b828286612a86565b979650505050505050565b60608315612a9557508161070f565b825115612aa55782518084602001fd5b8160405162461bcd60e51b81526004016106ec9190612bbd565b828054612acb90612ec2565b90600052602060002090601f016020900481019282612aed5760008555612b33565b82601f10612b0657805160ff1916838001178555612b33565b82800160010185558215612b33579182015b82811115612b33578251825591602001919060010190612b18565b5061161d9291505b8082111561161d5760008155600101612b3b565b600060208284031215612b6157600080fd5b81357fffffffff000000000000000000000000000000000000000000000000000000008116811461070f57600080fd5b60005b83811015612bac578181015183820152602001612b94565b838111156113765750506000910152565b6020815260008251806020840152612bdc816040850160208701612b91565b601f01601f19169190910160400192915050565b6001600160a01b038116811461084a57600080fd5b60008060408385031215612c1857600080fd5b8235612c2381612bf0565b946020939093013593505050565b600080600060608486031215612c4657600080fd5b8335612c5181612bf0565b92506020840135612c6181612bf0565b929592945050506040919091013590565b600060208284031215612c8457600080fd5b813561070f81612bf0565b600060208284031215612ca157600080fd5b5035919050565b60008083601f840112612cba57600080fd5b50813567ffffffffffffffff811115612cd257600080fd5b602083019150836020828501011115612cea57600080fd5b9250929050565b600080600080600060608688031215612d0957600080fd5b8535612d1481612bf0565b9450602086013567ffffffffffffffff80821115612d3157600080fd5b612d3d89838a01612ca8565b90965094506040880135915080821115612d5657600080fd5b50612d6388828901612ca8565b969995985093965092949392505050565b803560ff81168114612d8557600080fd5b919050565b60008060008060008060c08789031215612da357600080fd5b8635612dae81612bf0565b95506020870135945060408701359350612dca60608801612d74565b92506080870135915060a087013590509295509295509295565b600080600080600080600060e0888a031215612dff57600080fd5b8735612e0a81612bf0565b96506020880135612e1a81612bf0565b95506040880135945060608801359350612e3660808901612d74565b925060a0880135915060c0880135905092959891949750929550565b60008060408385031215612e6557600080fd5b8235612e7081612bf0565b91506020830135612e8081612bf0565b809150509250929050565b60008060408385031215612e9e57600080fd5b8235612ea981612bf0565b9150602083013563ffffffff81168114612e8057600080fd5b600181811c90821680612ed657607f821691505b602082108114156119de57634e487b7160e01b600052602260045260246000fd5b634e487b7160e01b600052601160045260246000fd5b60008219821115612f2057612f20612ef7565b500190565b600082821015612f3757612f37612ef7565b500390565b634e487b7160e01b600052603260045260246000fd5b600060208284031215612f6457600080fd5b8151801515811461070f57600080fd5b600082612f9157634e487b7160e01b600052601260045260246000fd5b500490565b634e487b7160e01b600052602160045260246000fd5b60008251612fbe818460208701612b91565b919091019291505056fe302e302e312b6f70656e67736e2e726563697069656e742e476f7665726e616e6365577261707065644552433230a2646970667358221220f2c691b3cfbe95b54712a73d7fdab09af3669bf53081671aad9eb0ea490157a864736f6c634300080a0033608060405234801561001057600080fd5b50610aec806100206000396000f3fe608060405234801561001057600080fd5b50600436106100a35760003560e01c8063c0c53b8b11610076578063d3feb8301161005b578063d3feb83014610186578063ec8528f914610199578063fc0c546a146101ac57600080fd5b8063c0c53b8b1461015e578063c4d66de81461017357600080fd5b8063486ff0cd146100a8578063572b6c05146100c65780637da0a877146100fe57806382fad6b114610129575b600080fd5b6100b06101bf565b6040516100bd91906107be565b60405180910390f35b6100ee6100d436600461082b565b6000546201000090046001600160a01b0390811691161490565b60405190151581526020016100bd565b6000546201000090046001600160a01b03165b6040516001600160a01b0390911681526020016100bd565b6101507ff8e0e18d27c0dc6c3560b375d0733d4bc5c99fb48b98dd3ccd06d363632783d481565b6040519081526020016100bd565b61017161016c36600461084f565b6101df565b005b61017161018136600461082b565b6102fa565b6101116101943660046108e3565b6103f0565b600354610111906001600160a01b031681565b600254610111906001600160a01b031681565b6060604051806060016040528060248152602001610a9360249139905090565b600054610100900460ff16806101f8575060005460ff16155b61026f5760405162461bcd60e51b815260206004820152602e60248201527f496e697469616c697a61626c653a20636f6e747261637420697320616c72656160448201527f647920696e697469616c697a656400000000000000000000000000000000000060648201526084015b60405180910390fd5b600054610100900460ff16158015610291576000805461ffff19166101011790555b600280546001600160a01b038086167fffffffffffffffffffffffff00000000000000000000000000000000000000009283161790925560038054928516929091169190911790556102e2846102fa565b80156102f4576000805461ff00191690555b50505050565b600054610100900460ff1680610313575060005460ff16155b6103855760405162461bcd60e51b815260206004820152602e60248201527f496e697469616c697a61626c653a20636f6e747261637420697320616c72656160448201527f647920696e697469616c697a65640000000000000000000000000000000000006064820152608401610266565b600054610100900460ff161580156103a7576000805461ffff19166101011790555b600180547fffffffffffffffffffffffff0000000000000000000000000000000000000000166001600160a01b03841617905580156103ec576000805461ff00191690555b5050565b6001546000907ff8e0e18d27c0dc6c3560b375d0733d4bc5c99fb48b98dd3ccd06d363632783d4906001600160a01b031663fdef91063061042f610655565b846104386106ad565b6040518663ffffffff1660e01b8152600401610458959493929190610991565b6020604051808303816000875af1158015610477573d6000803e3d6000fd5b505050506040513d601f19601f8201168201806040525081019061049b91906109cf565b6104e75760405162461bcd60e51b815260206004820152600f60248201527f636f6d706f6e656e743a206175746800000000000000000000000000000000006044820152606401610266565b6003546000906104ff906001600160a01b0316610703565b6002546040517fbe13f47c0000000000000000000000000000000000000000000000000000000081526001600160a01b039182166004820152602481018c905291925082169063be13f47c90604401600060405180830381600087803b15801561056857600080fd5b505af115801561057c573d6000803e3d6000fd5b50506002546040517f40c10f190000000000000000000000000000000000000000000000000000000081526001600160a01b038581166004830152602482018d905290911692506340c10f199150604401600060405180830381600087803b1580156105e757600080fd5b505af11580156105fb573d6000803e3d6000fd5b5050505088816001600160a01b03167ff5eb12d9e3fbc57fd00a7246b6bb142b1c5f6e7cdd9f9f17efd5c2163440e0f48a8a8a8a8a6040516106419594939291906109f1565b60405180910390a398975050505050505050565b60006014361080159061067857506000546201000090046001600160a01b031633145b156106a857507fffffffffffffffffffffffffffffffffffffffffffffffffffffffffffffffec36013560601c90565b503390565b366000601482108015906106d157506000546201000090046001600160a01b031633145b156106fa57600080366106e5601482610a2a565b926106f293929190610a68565b915091509091565b50600091369150565b60006040517f3d602d80600a3d3981f3363d3d373d3d3d363d7300000000000000000000000081528260601b60148201527f5af43d82803e903d91602b57fd5bf3000000000000000000000000000000000060288201526037816000f09150506001600160a01b0381166107b95760405162461bcd60e51b815260206004820152601660248201527f455243313136373a20637265617465206661696c6564000000000000000000006044820152606401610266565b919050565b600060208083528351808285015260005b818110156107eb578581018301518582016040015282016107cf565b818111156107fd576000604083870101525b50601f01601f1916929092016040019392505050565b6001600160a01b038116811461082857600080fd5b50565b60006020828403121561083d57600080fd5b813561084881610813565b9392505050565b60008060006060848603121561086457600080fd5b833561086f81610813565b9250602084013561087f81610813565b9150604084013561088f81610813565b809150509250925092565b60008083601f8401126108ac57600080fd5b50813567ffffffffffffffff8111156108c457600080fd5b6020830191508360208285010111156108dc57600080fd5b9250929050565b600080600080600080608087890312156108fc57600080fd5b8635955060208701359450604087013567ffffffffffffffff8082111561092257600080fd5b61092e8a838b0161089a565b9096509450606089013591508082111561094757600080fd5b5061095489828a0161089a565b979a9699509497509295939492505050565b818352818160208501375060006020828401015260006020601f19601f840116840101905092915050565b60006001600160a01b038088168352808716602084015250846040830152608060608301526109c4608083018486610966565b979650505050505050565b6000602082840312156109e157600080fd5b8151801515811461084857600080fd5b858152606060208201526000610a0b606083018688610966565b8281036040840152610a1e818587610966565b98975050505050505050565b600082821015610a63577f4e487b7100000000000000000000000000000000000000000000000000000000600052601160045260246000fd5b500390565b60008085851115610a7857600080fd5b83861115610a8557600080fd5b505082019391909203915056fe302e302e312b6f70656e67736e2e726563697069656e742e4d65726b6c654d696e746572a26469706673582212200ec880fe9838f29f3a5d903e78e83dcde9470a3959a1be2b09bde95645c8ea4564736f6c634300080a0033",
  "devdoc": {
    "author": "Giorgi Lagidze - Aragon Association - 2022",
    "kind": "dev",
    "methods": {
      "newToken(address,(address,string,string),(address[],uint256[]))": {
        "params": {
          "_dao": "The dao address",
          "_mintConfig": "contains addresses and values(where to mint tokens and how much)",
          "_tokenConfig": "The address of the token, name, and symbol. If no addr is passed will a new token get created."
        },
        "returns": {
          "_0": "ERC20VotesUpgradeable new token address",
          "_1": "MerkleMinter new merkle minter address(zero address in case passed token addr was not zero)"
        }
      }
    },
    "title": "TokenFactory to create a DAO",
    "version": 1
  },
  "userdoc": {
    "kind": "user",
    "methods": {
      "newToken(address,(address,string,string),(address[],uint256[]))": {
        "notice": "TODO: Worth considering the decimals ? if addr is zero, creates new token + merkle minter, otherwise, creates a wrapped token only."
      }
    },
    "notice": "This contract is used to create a Token.",
    "version": 1
  },
  "storageLayout": {
    "storage": [
      {
        "astId": 7655,
        "contract": "contracts/factories/TokenFactory.sol:TokenFactory",
        "label": "governanceERC20Base",
        "offset": 0,
        "slot": "0",
        "type": "t_address"
      },
      {
        "astId": 7657,
        "contract": "contracts/factories/TokenFactory.sol:TokenFactory",
        "label": "governanceWrappedERC20Base",
        "offset": 0,
        "slot": "1",
        "type": "t_address"
      },
      {
        "astId": 7659,
        "contract": "contracts/factories/TokenFactory.sol:TokenFactory",
        "label": "merkleMinterBase",
        "offset": 0,
        "slot": "2",
        "type": "t_address"
      },
      {
        "astId": 7662,
        "contract": "contracts/factories/TokenFactory.sol:TokenFactory",
        "label": "distributorBase",
        "offset": 0,
        "slot": "3",
        "type": "t_contract(MerkleDistributor)8993"
      }
    ],
    "types": {
      "t_address": {
        "encoding": "inplace",
        "label": "address",
        "numberOfBytes": "20"
      },
      "t_contract(MerkleDistributor)8993": {
        "encoding": "inplace",
        "label": "contract MerkleDistributor",
        "numberOfBytes": "20"
      }
    }
  }
}