{
  "address": "0xadAdd899F1096B77B6fE601748be1A7a9ADB714B",
  "abi": [
    {
      "anonymous": false,
      "inputs": [
        {
          "indexed": true,
          "internalType": "contract DAO",
          "name": "dao",
          "type": "address"
        },
        {
          "indexed": true,
          "internalType": "address",
          "name": "creator",
          "type": "address"
        },
        {
          "indexed": true,
          "internalType": "address",
          "name": "token",
          "type": "address"
        },
        {
          "indexed": false,
          "internalType": "string",
          "name": "name",
          "type": "string"
        }
      ],
      "name": "NewDAORegistered",
      "type": "event"
    },
    {
      "inputs": [
        {
          "internalType": "string",
          "name": "",
          "type": "string"
        }
      ],
      "name": "daos",
      "outputs": [
        {
          "internalType": "bool",
          "name": "",
          "type": "bool"
        }
      ],
      "stateMutability": "view",
      "type": "function"
    },
    {
      "inputs": [
        {
          "internalType": "string",
          "name": "name",
          "type": "string"
        },
        {
          "internalType": "contract DAO",
          "name": "dao",
          "type": "address"
        },
        {
          "internalType": "address",
          "name": "creator",
          "type": "address"
        },
        {
          "internalType": "address",
          "name": "token",
          "type": "address"
        }
      ],
      "name": "register",
      "outputs": [],
      "stateMutability": "nonpayable",
      "type": "function"
    }
  ],
  "transactionHash": "0x7ec17bebf61965e531fb5c2a2fbe2da5a130c2ca06073f11b5d6fcd675c84c6f",
  "args": [],
  "numDeployments": 1,
  "solcInputHash": "c4c707da39c5ddc6f134238ceb5472d9",
  "bytecode": "0x608060405234801561001057600080fd5b50610403806100206000396000f3fe608060405234801561001057600080fd5b50600436106100365760003560e01c8063e12ea8ba1461003b578063e1b8bcdb1461007d575b600080fd5b61006961004936600461020f565b805160208183018101805160008252928201919093012091525460ff1681565b604051901515815260200160405180910390f35b61009061008b3660046102e5565b610092565b005b600085856040516100a492919061038e565b9081526040519081900360200190205460ff1615610122576040517f08c379a000000000000000000000000000000000000000000000000000000000815260206004820152601360248201527f6e616d6520616c726561647920696e2075736500000000000000000000000000604482015260640160405180910390fd5b60016000868660405161013692919061038e565b908152602001604051809103902060006101000a81548160ff0219169083151502179055508073ffffffffffffffffffffffffffffffffffffffff168273ffffffffffffffffffffffffffffffffffffffff168473ffffffffffffffffffffffffffffffffffffffff167f0e1cad7f0778337c31dbd85ec582e66659fc95110888f28357e5c0a926d940a588886040516101d192919061039e565b60405180910390a45050505050565b7f4e487b7100000000000000000000000000000000000000000000000000000000600052604160045260246000fd5b60006020828403121561022157600080fd5b813567ffffffffffffffff8082111561023957600080fd5b818401915084601f83011261024d57600080fd5b81358181111561025f5761025f6101e0565b604051601f8201601f19908116603f01168101908382118183101715610287576102876101e0565b816040528281528760208487010111156102a057600080fd5b826020860160208301376000928101602001929092525095945050505050565b73ffffffffffffffffffffffffffffffffffffffff811681146102e257600080fd5b50565b6000806000806000608086880312156102fd57600080fd5b853567ffffffffffffffff8082111561031557600080fd5b818801915088601f83011261032957600080fd5b81358181111561033857600080fd5b89602082850101111561034a57600080fd5b60209283019750955050860135610360816102c0565b92506040860135610370816102c0565b91506060860135610380816102c0565b809150509295509295909350565b8183823760009101908152919050565b60208152816020820152818360408301376000818301604090810191909152601f909201601f1916010191905056fea26469706673582212205979d44217398a7b09a7a12172a4cafbac9ed6114905a2fd805414e8be66506c64736f6c634300080a0033",
  "devdoc": {
    "author": "Samuel Furter - Aragon Association - 2021",
    "kind": "dev",
    "methods": {
      "register(string,address,address,address)": {
        "details": "A name is unique within the Aragon DAO framework and can get stored here",
        "params": {
          "dao": "The address of the DAO contract",
          "name": "The name of the DAO"
        }
      }
    },
    "title": "Register your unique DAO name",
    "version": 1
  },
  "userdoc": {
    "kind": "user",
    "methods": {
      "register(string,address,address,address)": {
        "notice": "Registers a DAO by his name"
      }
    },
    "notice": "This contract provides the possiblity to register a DAO by a unique name.",
    "version": 1
  },
  "storageLayout": {
    "storage": [
      {
        "astId": 7984,
        "contract": "contracts/registry/Registry.sol:Registry",
        "label": "daos",
        "offset": 0,
        "slot": "0",
        "type": "t_mapping(t_string_memory_ptr,t_bool)"
      }
    ],
    "types": {
      "t_bool": {
        "encoding": "inplace",
        "label": "bool",
        "numberOfBytes": "1"
      },
      "t_mapping(t_string_memory_ptr,t_bool)": {
        "encoding": "mapping",
        "key": "t_string_memory_ptr",
        "label": "mapping(string => bool)",
        "numberOfBytes": "32",
        "value": "t_bool"
      },
      "t_string_memory_ptr": {
        "encoding": "bytes",
        "label": "string",
        "numberOfBytes": "32"
      }
    }
  }
}